{
  "contractName": "Token",
  "abi": [
    {
      "inputs": [],
      "stateMutability": "nonpayable",
      "type": "constructor"
    },
    {
      "anonymous": false,
      "inputs": [
        {
          "indexed": true,
          "internalType": "address",
          "name": "account",
          "type": "address"
        },
        {
          "indexed": true,
          "internalType": "address",
          "name": "operator",
          "type": "address"
        },
        {
          "indexed": false,
          "internalType": "bool",
          "name": "approved",
          "type": "bool"
        }
      ],
      "name": "ApprovalForAll",
      "type": "event"
    },
    {
      "anonymous": false,
      "inputs": [
        {
          "indexed": true,
          "internalType": "address",
          "name": "operator",
          "type": "address"
        },
        {
          "indexed": true,
          "internalType": "address",
          "name": "from",
          "type": "address"
        },
        {
          "indexed": true,
          "internalType": "address",
          "name": "to",
          "type": "address"
        },
        {
          "indexed": false,
          "internalType": "uint256[]",
          "name": "ids",
          "type": "uint256[]"
        },
        {
          "indexed": false,
          "internalType": "uint256[]",
          "name": "values",
          "type": "uint256[]"
        }
      ],
      "name": "TransferBatch",
      "type": "event"
    },
    {
      "anonymous": false,
      "inputs": [
        {
          "indexed": true,
          "internalType": "address",
          "name": "operator",
          "type": "address"
        },
        {
          "indexed": true,
          "internalType": "address",
          "name": "from",
          "type": "address"
        },
        {
          "indexed": true,
          "internalType": "address",
          "name": "to",
          "type": "address"
        },
        {
          "indexed": false,
          "internalType": "uint256",
          "name": "id",
          "type": "uint256"
        },
        {
          "indexed": false,
          "internalType": "uint256",
          "name": "value",
          "type": "uint256"
        }
      ],
      "name": "TransferSingle",
      "type": "event"
    },
    {
      "anonymous": false,
      "inputs": [
        {
          "indexed": false,
          "internalType": "string",
          "name": "value",
          "type": "string"
        },
        {
          "indexed": true,
          "internalType": "uint256",
          "name": "id",
          "type": "uint256"
        }
      ],
      "name": "URI",
      "type": "event"
    },
    {
      "inputs": [
        {
          "internalType": "address",
          "name": "account",
          "type": "address"
        },
        {
          "internalType": "uint256",
          "name": "id",
          "type": "uint256"
        }
      ],
      "name": "balanceOf",
      "outputs": [
        {
          "internalType": "uint256",
          "name": "",
          "type": "uint256"
        }
      ],
      "stateMutability": "view",
      "type": "function",
      "constant": true
    },
    {
      "inputs": [
        {
          "internalType": "address[]",
          "name": "accounts",
          "type": "address[]"
        },
        {
          "internalType": "uint256[]",
          "name": "ids",
          "type": "uint256[]"
        }
      ],
      "name": "balanceOfBatch",
      "outputs": [
        {
          "internalType": "uint256[]",
          "name": "",
          "type": "uint256[]"
        }
      ],
      "stateMutability": "view",
      "type": "function",
      "constant": true
    },
    {
      "inputs": [
        {
          "internalType": "address",
          "name": "account",
          "type": "address"
        },
        {
          "internalType": "address",
          "name": "operator",
          "type": "address"
        }
      ],
      "name": "isApprovedForAll",
      "outputs": [
        {
          "internalType": "bool",
          "name": "",
          "type": "bool"
        }
      ],
      "stateMutability": "view",
      "type": "function",
      "constant": true
    },
    {
      "inputs": [
        {
          "internalType": "address",
          "name": "from",
          "type": "address"
        },
        {
          "internalType": "address",
          "name": "to",
          "type": "address"
        },
        {
          "internalType": "uint256[]",
          "name": "ids",
          "type": "uint256[]"
        },
        {
          "internalType": "uint256[]",
          "name": "amounts",
          "type": "uint256[]"
        },
        {
          "internalType": "bytes",
          "name": "data",
          "type": "bytes"
        }
      ],
      "name": "safeBatchTransferFrom",
      "outputs": [],
      "stateMutability": "nonpayable",
      "type": "function"
    },
    {
      "inputs": [
        {
          "internalType": "address",
          "name": "from",
          "type": "address"
        },
        {
          "internalType": "address",
          "name": "to",
          "type": "address"
        },
        {
          "internalType": "uint256",
          "name": "id",
          "type": "uint256"
        },
        {
          "internalType": "uint256",
          "name": "amount",
          "type": "uint256"
        },
        {
          "internalType": "bytes",
          "name": "data",
          "type": "bytes"
        }
      ],
      "name": "safeTransferFrom",
      "outputs": [],
      "stateMutability": "nonpayable",
      "type": "function"
    },
    {
      "inputs": [
        {
          "internalType": "address",
          "name": "operator",
          "type": "address"
        },
        {
          "internalType": "bool",
          "name": "approved",
          "type": "bool"
        }
      ],
      "name": "setApprovalForAll",
      "outputs": [],
      "stateMutability": "nonpayable",
      "type": "function"
    },
    {
      "inputs": [
        {
          "internalType": "bytes4",
          "name": "interfaceId",
          "type": "bytes4"
        }
      ],
      "name": "supportsInterface",
      "outputs": [
        {
          "internalType": "bool",
          "name": "",
          "type": "bool"
        }
      ],
      "stateMutability": "view",
      "type": "function",
      "constant": true
    },
    {
      "inputs": [
        {
          "internalType": "uint256",
          "name": "",
          "type": "uint256"
        }
      ],
      "name": "uri",
      "outputs": [
        {
          "internalType": "string",
          "name": "",
          "type": "string"
        }
      ],
      "stateMutability": "view",
      "type": "function",
      "constant": true
    },
    {
      "inputs": [
        {
          "internalType": "address",
          "name": "account",
          "type": "address"
        },
        {
          "internalType": "uint256",
          "name": "id",
          "type": "uint256"
        }
      ],
      "name": "mint",
      "outputs": [],
      "stateMutability": "nonpayable",
      "type": "function"
    }
  ],
  "bytecode": "0x60806040523480156200001157600080fd5b5060405180606001604052806032815260200162002a52603291396200003d816200004460201b60201c565b5062000175565b80600290805190602001906200005c92919062000060565b5050565b8280546200006e9062000110565b90600052602060002090601f016020900481019282620000925760008555620000de565b82601f10620000ad57805160ff1916838001178555620000de565b82800160010185558215620000de579182015b82811115620000dd578251825591602001919060010190620000c0565b5b509050620000ed9190620000f1565b5090565b5b808211156200010c576000816000905550600101620000f2565b5090565b600060028204905060018216806200012957607f821691505b6020821081141562000140576200013f62000146565b5b50919050565b7f4e487b7100000000000000000000000000000000000000000000000000000000600052602260045260246000fd5b6128cd80620001856000396000f3fe608060405234801561001057600080fd5b50600436106100925760003560e01c806340c10f191161006657806340c10f19146101435780634e1273f41461015f578063a22cb4651461018f578063e985e9c5146101ab578063f242432a146101db57610092565b8062fdd58e1461009757806301ffc9a7146100c75780630e89341c146100f75780632eb2c2d614610127575b600080fd5b6100b160048036038101906100ac91906119a4565b6101f7565b6040516100be9190612024565b60405180910390f35b6100e160048036038101906100dc9190611a4c565b6102c0565b6040516100ee9190611e87565b60405180910390f35b610111600480360381019061010c9190611a9e565b6103a2565b60405161011e9190611ea2565b60405180910390f35b610141600480360381019061013c919061181a565b610436565b005b61015d600480360381019061015891906119a4565b61082c565b005b610179600480360381019061017491906119e0565b61084c565b6040516101869190611e2e565b60405180910390f35b6101a960048036038101906101a49190611968565b6109fd565b005b6101c560048036038101906101c091906117de565b610b7e565b6040516101d29190611e87565b60405180910390f35b6101f560048036038101906101f091906118d9565b610c12565b005b60008073ffffffffffffffffffffffffffffffffffffffff168373ffffffffffffffffffffffffffffffffffffffff161415610268576040517f08c379a000000000000000000000000000000000000000000000000000000000815260040161025f90611f04565b60405180910390fd5b60008083815260200190815260200160002060008473ffffffffffffffffffffffffffffffffffffffff1673ffffffffffffffffffffffffffffffffffffffff16815260200190815260200160002054905092915050565b60007fd9b67a26000000000000000000000000000000000000000000000000000000007bffffffffffffffffffffffffffffffffffffffffffffffffffffffff1916827bffffffffffffffffffffffffffffffffffffffffffffffffffffffff1916148061038b57507f0e89341c000000000000000000000000000000000000000000000000000000007bffffffffffffffffffffffffffffffffffffffffffffffffffffffff1916827bffffffffffffffffffffffffffffffffffffffffffffffffffffffff1916145b8061039b575061039a82610f2a565b5b9050919050565b6060600280546103b1906122c7565b80601f01602080910402602001604051908101604052809291908181526020018280546103dd906122c7565b801561042a5780601f106103ff5761010080835404028352916020019161042a565b820191906000526020600020905b81548152906001019060200180831161040d57829003601f168201915b50505050509050919050565b815183511461047a576040517f08c379a000000000000000000000000000000000000000000000000000000000815260040161047190611fe4565b60405180910390fd5b600073ffffffffffffffffffffffffffffffffffffffff168473ffffffffffffffffffffffffffffffffffffffff1614156104ea576040517f08c379a00000000000000000000000000000000000000000000000000000000081526004016104e190611f44565b60405180910390fd5b6104f2610f94565b73ffffffffffffffffffffffffffffffffffffffff168573ffffffffffffffffffffffffffffffffffffffff161480610538575061053785610532610f94565b610b7e565b5b610577576040517f08c379a000000000000000000000000000000000000000000000000000000000815260040161056e90611f64565b60405180910390fd5b6000610581610f94565b9050610591818787878787610f9c565b60005b84518110156107975760008582815181106105d8577f4e487b7100000000000000000000000000000000000000000000000000000000600052603260045260246000fd5b60200260200101519050600085838151811061061d577f4e487b7100000000000000000000000000000000000000000000000000000000600052603260045260246000fd5b60200260200101519050600080600084815260200190815260200160002060008b73ffffffffffffffffffffffffffffffffffffffff1673ffffffffffffffffffffffffffffffffffffffff168152602001908152602001600020549050818110156106be576040517f08c379a00000000000000000000000000000000000000000000000000000000081526004016106b590611f84565b60405180910390fd5b81816106ca91906121dd565b60008085815260200190815260200160002060008c73ffffffffffffffffffffffffffffffffffffffff1673ffffffffffffffffffffffffffffffffffffffff168152602001908152602001600020819055508160008085815260200190815260200160002060008b73ffffffffffffffffffffffffffffffffffffffff1673ffffffffffffffffffffffffffffffffffffffff168152602001908152602001600020600082825461077c9190612187565b92505081905550505050806107909061232a565b9050610594565b508473ffffffffffffffffffffffffffffffffffffffff168673ffffffffffffffffffffffffffffffffffffffff168273ffffffffffffffffffffffffffffffffffffffff167f4a39dc06d4c0dbc64b70af90fd698a233a518aa5d07e595d983b8c0526c8f7fb878760405161080e929190611e50565b60405180910390a4610824818787878787610fa4565b505050505050565b610848828260016040518060200160405280600081525061118b565b5050565b60608151835114610892576040517f08c379a000000000000000000000000000000000000000000000000000000000815260040161088990611fc4565b60405180910390fd5b6000835167ffffffffffffffff8111156108d5577f4e487b7100000000000000000000000000000000000000000000000000000000600052604160045260246000fd5b6040519080825280602002602001820160405280156109035781602001602082028036833780820191505090505b50905060005b84518110156109f25761099c85828151811061094e577f4e487b7100000000000000000000000000000000000000000000000000000000600052603260045260246000fd5b602002602001015185838151811061098f577f4e487b7100000000000000000000000000000000000000000000000000000000600052603260045260246000fd5b60200260200101516101f7565b8282815181106109d5577f4e487b7100000000000000000000000000000000000000000000000000000000600052603260045260246000fd5b602002602001018181525050806109eb9061232a565b9050610909565b508091505092915050565b8173ffffffffffffffffffffffffffffffffffffffff16610a1c610f94565b73ffffffffffffffffffffffffffffffffffffffff161415610a73576040517f08c379a0000000000000000000000000000000000000000000000000000000008152600401610a6a90611fa4565b60405180910390fd5b8060016000610a80610f94565b73ffffffffffffffffffffffffffffffffffffffff1673ffffffffffffffffffffffffffffffffffffffff16815260200190815260200160002060008473ffffffffffffffffffffffffffffffffffffffff1673ffffffffffffffffffffffffffffffffffffffff16815260200190815260200160002060006101000a81548160ff0219169083151502179055508173ffffffffffffffffffffffffffffffffffffffff16610b2d610f94565b73ffffffffffffffffffffffffffffffffffffffff167f17307eab39ab6107e8899845ad3d59bd9653f200f220920489ca2b5937696c3183604051610b729190611e87565b60405180910390a35050565b6000600160008473ffffffffffffffffffffffffffffffffffffffff1673ffffffffffffffffffffffffffffffffffffffff16815260200190815260200160002060008373ffffffffffffffffffffffffffffffffffffffff1673ffffffffffffffffffffffffffffffffffffffff16815260200190815260200160002060009054906101000a900460ff16905092915050565b600073ffffffffffffffffffffffffffffffffffffffff168473ffffffffffffffffffffffffffffffffffffffff161415610c82576040517f08c379a0000000000000000000000000000000000000000000000000000000008152600401610c7990611f44565b60405180910390fd5b610c8a610f94565b73ffffffffffffffffffffffffffffffffffffffff168573ffffffffffffffffffffffffffffffffffffffff161480610cd05750610ccf85610cca610f94565b610b7e565b5b610d0f576040517f08c379a0000000000000000000000000000000000000000000000000000000008152600401610d0690611f24565b60405180910390fd5b6000610d19610f94565b9050610d39818787610d2a88611321565b610d3388611321565b87610f9c565b600080600086815260200190815260200160002060008873ffffffffffffffffffffffffffffffffffffffff1673ffffffffffffffffffffffffffffffffffffffff16815260200190815260200160002054905083811015610dd0576040517f08c379a0000000000000000000000000000000000000000000000000000000008152600401610dc790611f84565b60405180910390fd5b8381610ddc91906121dd565b60008087815260200190815260200160002060008973ffffffffffffffffffffffffffffffffffffffff1673ffffffffffffffffffffffffffffffffffffffff168152602001908152602001600020819055508360008087815260200190815260200160002060008873ffffffffffffffffffffffffffffffffffffffff1673ffffffffffffffffffffffffffffffffffffffff1681526020019081526020016000206000828254610e8e9190612187565b925050819055508573ffffffffffffffffffffffffffffffffffffffff168773ffffffffffffffffffffffffffffffffffffffff168373ffffffffffffffffffffffffffffffffffffffff167fc3d58168c5ae7397731d063d5bbf3d657854427343f4c083240f7aacaa2d0f628888604051610f0b92919061203f565b60405180910390a4610f218288888888886113e7565b50505050505050565b60007f01ffc9a7000000000000000000000000000000000000000000000000000000007bffffffffffffffffffffffffffffffffffffffffffffffffffffffff1916827bffffffffffffffffffffffffffffffffffffffffffffffffffffffff1916149050919050565b600033905090565b505050505050565b610fc38473ffffffffffffffffffffffffffffffffffffffff166115ce565b15611183578373ffffffffffffffffffffffffffffffffffffffff1663bc197c8187878686866040518663ffffffff1660e01b8152600401611009959493929190611d6c565b602060405180830381600087803b15801561102357600080fd5b505af192505050801561105457506040513d601f19601f820116820180604052508101906110519190611a75565b60015b6110fa57611060612400565b806308c379a014156110bd57506110756127a5565b8061108057506110bf565b806040517f08c379a00000000000000000000000000000000000000000000000000000000081526004016110b49190611ea2565b60405180910390fd5b505b6040517f08c379a00000000000000000000000000000000000000000000000000000000081526004016110f190611ec4565b60405180910390fd5b63bc197c8160e01b7bffffffffffffffffffffffffffffffffffffffffffffffffffffffff1916817bffffffffffffffffffffffffffffffffffffffffffffffffffffffff191614611181576040517f08c379a000000000000000000000000000000000000000000000000000000000815260040161117890611ee4565b60405180910390fd5b505b505050505050565b600073ffffffffffffffffffffffffffffffffffffffff168473ffffffffffffffffffffffffffffffffffffffff1614156111fb576040517f08c379a00000000000000000000000000000000000000000000000000000000081526004016111f290612004565b60405180910390fd5b6000611205610f94565b90506112268160008761121788611321565b61122088611321565b87610f9c565b8260008086815260200190815260200160002060008773ffffffffffffffffffffffffffffffffffffffff1673ffffffffffffffffffffffffffffffffffffffff16815260200190815260200160002060008282546112859190612187565b925050819055508473ffffffffffffffffffffffffffffffffffffffff16600073ffffffffffffffffffffffffffffffffffffffff168273ffffffffffffffffffffffffffffffffffffffff167fc3d58168c5ae7397731d063d5bbf3d657854427343f4c083240f7aacaa2d0f62878760405161130392919061203f565b60405180910390a461131a816000878787876113e7565b5050505050565b60606000600167ffffffffffffffff811115611366577f4e487b7100000000000000000000000000000000000000000000000000000000600052604160045260246000fd5b6040519080825280602002602001820160405280156113945781602001602082028036833780820191505090505b50905082816000815181106113d2577f4e487b7100000000000000000000000000000000000000000000000000000000600052603260045260246000fd5b60200260200101818152505080915050919050565b6114068473ffffffffffffffffffffffffffffffffffffffff166115ce565b156115c6578373ffffffffffffffffffffffffffffffffffffffff1663f23a6e6187878686866040518663ffffffff1660e01b815260040161144c959493929190611dd4565b602060405180830381600087803b15801561146657600080fd5b505af192505050801561149757506040513d601f19601f820116820180604052508101906114949190611a75565b60015b61153d576114a3612400565b806308c379a0141561150057506114b86127a5565b806114c35750611502565b806040517f08c379a00000000000000000000000000000000000000000000000000000000081526004016114f79190611ea2565b60405180910390fd5b505b6040517f08c379a000000000000000000000000000000000000000000000000000000000815260040161153490611ec4565b60405180910390fd5b63f23a6e6160e01b7bffffffffffffffffffffffffffffffffffffffffffffffffffffffff1916817bffffffffffffffffffffffffffffffffffffffffffffffffffffffff1916146115c4576040517f08c379a00000000000000000000000000000000000000000000000000000000081526004016115bb90611ee4565b60405180910390fd5b505b505050505050565b600080823b905060008111915050919050565b60006115f46115ef8461208d565b612068565b9050808382526020820190508285602086028201111561161357600080fd5b60005b85811015611643578161162988826116f7565b845260208401935060208301925050600181019050611616565b5050509392505050565b600061166061165b846120b9565b612068565b9050808382526020820190508285602086028201111561167f57600080fd5b60005b858110156116af578161169588826117c9565b845260208401935060208301925050600181019050611682565b5050509392505050565b60006116cc6116c7846120e5565b612068565b9050828152602081018484840111156116e457600080fd5b6116ef848285612285565b509392505050565b6000813590506117068161283b565b92915050565b600082601f83011261171d57600080fd5b813561172d8482602086016115e1565b91505092915050565b600082601f83011261174757600080fd5b813561175784826020860161164d565b91505092915050565b60008135905061176f81612852565b92915050565b60008135905061178481612869565b92915050565b60008151905061179981612869565b92915050565b600082601f8301126117b057600080fd5b81356117c08482602086016116b9565b91505092915050565b6000813590506117d881612880565b92915050565b600080604083850312156117f157600080fd5b60006117ff858286016116f7565b9250506020611810858286016116f7565b9150509250929050565b600080600080600060a0868803121561183257600080fd5b6000611840888289016116f7565b9550506020611851888289016116f7565b945050604086013567ffffffffffffffff81111561186e57600080fd5b61187a88828901611736565b935050606086013567ffffffffffffffff81111561189757600080fd5b6118a388828901611736565b925050608086013567ffffffffffffffff8111156118c057600080fd5b6118cc8882890161179f565b9150509295509295909350565b600080600080600060a086880312156118f157600080fd5b60006118ff888289016116f7565b9550506020611910888289016116f7565b9450506040611921888289016117c9565b9350506060611932888289016117c9565b925050608086013567ffffffffffffffff81111561194f57600080fd5b61195b8882890161179f565b9150509295509295909350565b6000806040838503121561197b57600080fd5b6000611989858286016116f7565b925050602061199a85828601611760565b9150509250929050565b600080604083850312156119b757600080fd5b60006119c5858286016116f7565b92505060206119d6858286016117c9565b9150509250929050565b600080604083850312156119f357600080fd5b600083013567ffffffffffffffff811115611a0d57600080fd5b611a198582860161170c565b925050602083013567ffffffffffffffff811115611a3657600080fd5b611a4285828601611736565b9150509250929050565b600060208284031215611a5e57600080fd5b6000611a6c84828501611775565b91505092915050565b600060208284031215611a8757600080fd5b6000611a958482850161178a565b91505092915050565b600060208284031215611ab057600080fd5b6000611abe848285016117c9565b91505092915050565b6000611ad38383611d4e565b60208301905092915050565b611ae881612211565b82525050565b6000611af982612126565b611b038185612154565b9350611b0e83612116565b8060005b83811015611b3f578151611b268882611ac7565b9750611b3183612147565b925050600181019050611b12565b5085935050505092915050565b611b5581612223565b82525050565b6000611b6682612131565b611b708185612165565b9350611b80818560208601612294565b611b8981612422565b840191505092915050565b6000611b9f8261213c565b611ba98185612176565b9350611bb9818560208601612294565b611bc281612422565b840191505092915050565b6000611bda603483612176565b9150611be582612440565b604082019050919050565b6000611bfd602883612176565b9150611c088261248f565b604082019050919050565b6000611c20602b83612176565b9150611c2b826124de565b604082019050919050565b6000611c43602983612176565b9150611c4e8261252d565b604082019050919050565b6000611c66602583612176565b9150611c718261257c565b604082019050919050565b6000611c89603283612176565b9150611c94826125cb565b604082019050919050565b6000611cac602a83612176565b9150611cb78261261a565b604082019050919050565b6000611ccf602983612176565b9150611cda82612669565b604082019050919050565b6000611cf2602983612176565b9150611cfd826126b8565b604082019050919050565b6000611d15602883612176565b9150611d2082612707565b604082019050919050565b6000611d38602183612176565b9150611d4382612756565b604082019050919050565b611d578161227b565b82525050565b611d668161227b565b82525050565b600060a082019050611d816000830188611adf565b611d8e6020830187611adf565b8181036040830152611da08186611aee565b90508181036060830152611db48185611aee565b90508181036080830152611dc88184611b5b565b90509695505050505050565b600060a082019050611de96000830188611adf565b611df66020830187611adf565b611e036040830186611d5d565b611e106060830185611d5d565b8181036080830152611e228184611b5b565b90509695505050505050565b60006020820190508181036000830152611e488184611aee565b905092915050565b60006040820190508181036000830152611e6a8185611aee565b90508181036020830152611e7e8184611aee565b90509392505050565b6000602082019050611e9c6000830184611b4c565b92915050565b60006020820190508181036000830152611ebc8184611b94565b905092915050565b60006020820190508181036000830152611edd81611bcd565b9050919050565b60006020820190508181036000830152611efd81611bf0565b9050919050565b60006020820190508181036000830152611f1d81611c13565b9050919050565b60006020820190508181036000830152611f3d81611c36565b9050919050565b60006020820190508181036000830152611f5d81611c59565b9050919050565b60006020820190508181036000830152611f7d81611c7c565b9050919050565b60006020820190508181036000830152611f9d81611c9f565b9050919050565b60006020820190508181036000830152611fbd81611cc2565b9050919050565b60006020820190508181036000830152611fdd81611ce5565b9050919050565b60006020820190508181036000830152611ffd81611d08565b9050919050565b6000602082019050818103600083015261201d81611d2b565b9050919050565b60006020820190506120396000830184611d5d565b92915050565b60006040820190506120546000830185611d5d565b6120616020830184611d5d565b9392505050565b6000612072612083565b905061207e82826122f9565b919050565b6000604051905090565b600067ffffffffffffffff8211156120a8576120a76123d1565b5b602082029050602081019050919050565b600067ffffffffffffffff8211156120d4576120d36123d1565b5b602082029050602081019050919050565b600067ffffffffffffffff821115612100576120ff6123d1565b5b61210982612422565b9050602081019050919050565b6000819050602082019050919050565b600081519050919050565b600081519050919050565b600081519050919050565b6000602082019050919050565b600082825260208201905092915050565b600082825260208201905092915050565b600082825260208201905092915050565b60006121928261227b565b915061219d8361227b565b9250827fffffffffffffffffffffffffffffffffffffffffffffffffffffffffffffffff038211156121d2576121d1612373565b5b828201905092915050565b60006121e88261227b565b91506121f38361227b565b92508282101561220657612205612373565b5b828203905092915050565b600061221c8261225b565b9050919050565b60008115159050919050565b60007fffffffff0000000000000000000000000000000000000000000000000000000082169050919050565b600073ffffffffffffffffffffffffffffffffffffffff82169050919050565b6000819050919050565b82818337600083830152505050565b60005b838110156122b2578082015181840152602081019050612297565b838111156122c1576000848401525b50505050565b600060028204905060018216806122df57607f821691505b602082108114156122f3576122f26123a2565b5b50919050565b61230282612422565b810181811067ffffffffffffffff82111715612321576123206123d1565b5b80604052505050565b60006123358261227b565b91507fffffffffffffffffffffffffffffffffffffffffffffffffffffffffffffffff82141561236857612367612373565b5b600182019050919050565b7f4e487b7100000000000000000000000000000000000000000000000000000000600052601160045260246000fd5b7f4e487b7100000000000000000000000000000000000000000000000000000000600052602260045260246000fd5b7f4e487b7100000000000000000000000000000000000000000000000000000000600052604160045260246000fd5b600060033d111561241f5760046000803e61241c600051612433565b90505b90565b6000601f19601f8301169050919050565b60008160e01c9050919050565b7f455243313135353a207472616e7366657220746f206e6f6e204552433131353560008201527f526563656976657220696d706c656d656e746572000000000000000000000000602082015250565b7f455243313135353a204552433131353552656365697665722072656a6563746560008201527f6420746f6b656e73000000000000000000000000000000000000000000000000602082015250565b7f455243313135353a2062616c616e636520717565727920666f7220746865207a60008201527f65726f2061646472657373000000000000000000000000000000000000000000602082015250565b7f455243313135353a2063616c6c6572206973206e6f74206f776e6572206e6f7260008201527f20617070726f7665640000000000000000000000000000000000000000000000602082015250565b7f455243313135353a207472616e7366657220746f20746865207a65726f20616460008201527f6472657373000000000000000000000000000000000000000000000000000000602082015250565b7f455243313135353a207472616e736665722063616c6c6572206973206e6f742060008201527f6f776e6572206e6f7220617070726f7665640000000000000000000000000000602082015250565b7f455243313135353a20696e73756666696369656e742062616c616e636520666f60008201527f72207472616e7366657200000000000000000000000000000000000000000000602082015250565b7f455243313135353a2073657474696e6720617070726f76616c2073746174757360008201527f20666f722073656c660000000000000000000000000000000000000000000000602082015250565b7f455243313135353a206163636f756e747320616e6420696473206c656e67746860008201527f206d69736d617463680000000000000000000000000000000000000000000000602082015250565b7f455243313135353a2069647320616e6420616d6f756e7473206c656e6774682060008201527f6d69736d61746368000000000000000000000000000000000000000000000000602082015250565b7f455243313135353a206d696e7420746f20746865207a65726f2061646472657360008201527f7300000000000000000000000000000000000000000000000000000000000000602082015250565b600060443d10156127b557612838565b6127bd612083565b60043d036004823e80513d602482011167ffffffffffffffff821117156127e5575050612838565b808201805167ffffffffffffffff8111156128035750505050612838565b80602083010160043d038501811115612820575050505050612838565b61282f826020018501866122f9565b82955050505050505b90565b61284481612211565b811461284f57600080fd5b50565b61285b81612223565b811461286657600080fd5b50565b6128728161222f565b811461287d57600080fd5b50565b6128898161227b565b811461289457600080fd5b5056fea2646970667358221220a94b613438d7395628cc3fb690614e65fb4e9fb9397a569b0a3c377da0facf0a64736f6c6343000804003368747470733a2f2f6e6674313135352d73616d706c652e6865726f6b756170702e636f6d2f6d657461646174612f7b69647d",
  "immutableReferences": {},
  "source": "// contracts/GameItems.sol\n// SPDX-License-Identifier: MIT\npragma solidity ^0.8.3;\n\nimport \"@openzeppelin/contracts/token/ERC1155/ERC1155.sol\";\n\ncontract Token is ERC1155 {\n    constructor()\n        ERC1155(\"https://nft1155-sample.herokuapp.com/metadata/{id}\")\n    {}\n\n    function mint(address account, uint256 id) external {\n        _mint(account, id, 1, \"\");\n    }\n}\n",
  "sourcePath": "/root/Projects/SOTA/learn/erc-1155-contract/contracts/Token.sol",
  "compiler": {
    "name": "solc",
    "version": "0.8.4+commit.c7e474f2.Emscripten.clang"
  },
  "schemaVersion": "3.3.4",
  "updatedAt": "2021-04-24T17:23:16.555Z",
  "networkType": "ethereum",
  "devdoc": {
    "kind": "dev",
    "methods": {
      "balanceOf(address,uint256)": {
        "details": "See {IERC1155-balanceOf}. Requirements: - `account` cannot be the zero address."
      },
      "balanceOfBatch(address[],uint256[])": {
        "details": "See {IERC1155-balanceOfBatch}. Requirements: - `accounts` and `ids` must have the same length."
      },
      "isApprovedForAll(address,address)": {
        "details": "See {IERC1155-isApprovedForAll}."
      },
      "safeBatchTransferFrom(address,address,uint256[],uint256[],bytes)": {
        "details": "See {IERC1155-safeBatchTransferFrom}."
      },
      "safeTransferFrom(address,address,uint256,uint256,bytes)": {
        "details": "See {IERC1155-safeTransferFrom}."
      },
      "setApprovalForAll(address,bool)": {
        "details": "See {IERC1155-setApprovalForAll}."
      },
      "supportsInterface(bytes4)": {
        "details": "See {IERC165-supportsInterface}."
      },
      "uri(uint256)": {
        "details": "See {IERC1155MetadataURI-uri}. This implementation returns the same URI for *all* token types. It relies on the token type ID substitution mechanism https://eips.ethereum.org/EIPS/eip-1155#metadata[defined in the EIP]. Clients calling this function must replace the `\\{id\\}` substring with the actual token type ID."
      }
    },
    "version": 1
  },
  "userdoc": {
    "kind": "user",
    "methods": {},
    "version": 1
  }
}